{
  "address": "0x8eCA3D7d50341ace682c66f160bB00E10BdFf6e9",
  "abi": [
    {
      "inputs": [
        {
          "internalType": "address",
          "name": "priceFeedAddress",
          "type": "address"
        }
      ],
      "stateMutability": "nonpayable",
      "type": "constructor"
    },
    {
      "inputs": [],
      "name": "NotOwner",
      "type": "error"
    },
    {
      "stateMutability": "payable",
      "type": "fallback"
    },
    {
      "inputs": [],
      "name": "MINIMUM_USD",
      "outputs": [
        {
          "internalType": "uint256",
          "name": "",
          "type": "uint256"
        }
      ],
      "stateMutability": "view",
      "type": "function"
    },
    {
      "inputs": [],
      "name": "fund",
      "outputs": [],
      "stateMutability": "payable",
      "type": "function"
    },
    {
      "inputs": [
        {
          "internalType": "uint256",
          "name": "",
          "type": "uint256"
        }
      ],
      "name": "funders",
      "outputs": [
        {
          "internalType": "address",
          "name": "",
          "type": "address"
        }
      ],
      "stateMutability": "view",
      "type": "function"
    },
    {
      "inputs": [],
      "name": "i_owner",
      "outputs": [
        {
          "internalType": "address",
          "name": "",
          "type": "address"
        }
      ],
      "stateMutability": "view",
      "type": "function"
    },
    {
      "inputs": [],
      "name": "priceFeed",
      "outputs": [
        {
          "internalType": "contract AggregatorV3Interface",
          "name": "",
          "type": "address"
        }
      ],
      "stateMutability": "view",
      "type": "function"
    },
    {
      "inputs": [],
      "name": "withDraw",
      "outputs": [],
      "stateMutability": "nonpayable",
      "type": "function"
    },
    {
      "stateMutability": "payable",
      "type": "receive"
    }
  ],
  "transactionHash": "0xa0fb394a22fc695856b630e4a81c63d393ee46911939fd9a2aec0e2e9e8f8782",
  "args": [
    "0x694AA1769357215DE4FAC081bf1f309aDC325306"
  ],
  "numDeployments": 1,
  "solcInputHash": "82751bd6694242bffdce66604fd7f722",
  "bytecode": "0x60a060405234801561001057600080fd5b50604051610eba380380610eba833981810160405281019061003291906100c5565b3373ffffffffffffffffffffffffffffffffffffffff1660808173ffffffffffffffffffffffffffffffffffffffff1660601b8152505080600260006101000a81548173ffffffffffffffffffffffffffffffffffffffff021916908373ffffffffffffffffffffffffffffffffffffffff16021790555050610140565b6000815190506100bf81610129565b92915050565b6000602082840312156100db576100da610124565b5b60006100e9848285016100b0565b91505092915050565b60006100fd82610104565b9050919050565b600073ffffffffffffffffffffffffffffffffffffffff82169050919050565b600080fd5b610132816100f2565b811461013d57600080fd5b50565b60805160601c610d556101656000396000818161028e01526105020152610d556000f3fe6080604052600436106100595760003560e01c80630fdb1c10146100725780636b69a59214610089578063741bef1a146100b4578063b60d4288146100df578063dba6335f146100e9578063dc0d3dff1461011457610068565b3661006857610066610151565b005b610070610151565b005b34801561007e57600080fd5b5061008761028c565b005b34801561009557600080fd5b5061009e6104cd565b6040516100ab9190610903565b60405180910390f35b3480156100c057600080fd5b506100c96104da565b6040516100d691906108a8565b60405180910390f35b6100e7610151565b005b3480156100f557600080fd5b506100fe610500565b60405161010b919061088d565b60405180910390f35b34801561012057600080fd5b5061013b6004803603810190610136919061073a565b610524565b604051610148919061088d565b60405180910390f35b6802b5e3af16b1880000610190600260009054906101000a900473ffffffffffffffffffffffffffffffffffffffff163461056390919063ffffffff16565b10156101d1576040517f08c379a00000000000000000000000000000000000000000000000000000000081526004016101c8906108e3565b60405180910390fd5b6000339080600181540180825580915050600190039060005260206000200160009091909190916101000a81548173ffffffffffffffffffffffffffffffffffffffff021916908373ffffffffffffffffffffffffffffffffffffffff16021790555034600160003373ffffffffffffffffffffffffffffffffffffffff1673ffffffffffffffffffffffffffffffffffffffff1681526020019081526020016000206000828254610283919061093a565b92505081905550565b7f000000000000000000000000000000000000000000000000000000000000000073ffffffffffffffffffffffffffffffffffffffff163373ffffffffffffffffffffffffffffffffffffffff1614610311576040517f30cd747100000000000000000000000000000000000000000000000000000000815260040160405180910390fd5b60005b6000805490508110156103bd57600080828154811061033657610335610c22565b5b9060005260206000200160009054906101000a900473ffffffffffffffffffffffffffffffffffffffff1690506000600160008373ffffffffffffffffffffffffffffffffffffffff1673ffffffffffffffffffffffffffffffffffffffff16815260200190815260200160002081905550506001816103b6919061093a565b9050610314565b50600067ffffffffffffffff8111156103d9576103d8610c51565b5b6040519080825280602002602001820160405280156104075781602001602082028036833780820191505090505b506000908051906020019061041d92919061063f565b5060003373ffffffffffffffffffffffffffffffffffffffff164760405161044490610878565b60006040518083038185875af1925050503d8060008114610481576040519150601f19603f3d011682016040523d82523d6000602084013e610486565b606091505b50509050806104ca576040517f08c379a00000000000000000000000000000000000000000000000000000000081526004016104c1906108c3565b60405180910390fd5b50565b6802b5e3af16b188000081565b600260009054906101000a900473ffffffffffffffffffffffffffffffffffffffff1681565b7f000000000000000000000000000000000000000000000000000000000000000081565b6000818154811061053457600080fd5b906000526020600020016000915054906101000a900473ffffffffffffffffffffffffffffffffffffffff1681565b60008061056f8361059f565b90506000670de0b6b3a764000085836105889190610ad8565b6105929190610990565b9050809250505092915050565b6000808273ffffffffffffffffffffffffffffffffffffffff1663feaf968c6040518163ffffffff1660e01b815260040160a06040518083038186803b1580156105e857600080fd5b505afa1580156105fc573d6000803e3d6000fd5b505050506040513d601f19601f820116820180604052508101906106209190610767565b5050509150506402540be4008161063791906109c1565b915050919050565b8280548282559060005260206000209081019282156106b8579160200282015b828111156106b75782518260006101000a81548173ffffffffffffffffffffffffffffffffffffffff021916908373ffffffffffffffffffffffffffffffffffffffff1602179055509160200191906001019061065f565b5b5090506106c591906106c9565b5090565b5b808211156106e25760008160009055506001016106ca565b5090565b6000815190506106f581610cda565b92915050565b60008135905061070a81610cf1565b92915050565b60008151905061071f81610cf1565b92915050565b60008151905061073481610d08565b92915050565b6000602082840312156107505761074f610c80565b5b600061075e848285016106fb565b91505092915050565b600080600080600060a0868803121561078357610782610c80565b5b600061079188828901610725565b95505060206107a2888289016106e6565b94505060406107b388828901610710565b93505060606107c488828901610710565b92505060806107d588828901610725565b9150509295509295909350565b6107eb81610b32565b82525050565b6107fa81610b8e565b82525050565b600061080d601483610929565b915061081882610c85565b602082019050919050565b600061083060008361091e565b915061083b82610cae565b600082019050919050565b6000610853601383610929565b915061085e82610cb1565b602082019050919050565b61087281610b6e565b82525050565b600061088382610823565b9150819050919050565b60006020820190506108a260008301846107e2565b92915050565b60006020820190506108bd60008301846107f1565b92915050565b600060208201905081810360008301526108dc81610800565b9050919050565b600060208201905081810360008301526108fc81610846565b9050919050565b60006020820190506109186000830184610869565b92915050565b600081905092915050565b600082825260208201905092915050565b600061094582610b6e565b915061095083610b6e565b9250827fffffffffffffffffffffffffffffffffffffffffffffffffffffffffffffffff0382111561098557610984610bc4565b5b828201905092915050565b600061099b82610b6e565b91506109a683610b6e565b9250826109b6576109b5610bf3565b5b828204905092915050565b60006109cc82610b44565b91506109d783610b44565b9250827f7fffffffffffffffffffffffffffffffffffffffffffffffffffffffffffffff0482116000841360008413161615610a1657610a15610bc4565b5b817f80000000000000000000000000000000000000000000000000000000000000000583126000841260008413161615610a5357610a52610bc4565b5b827f80000000000000000000000000000000000000000000000000000000000000000582126000841360008412161615610a9057610a8f610bc4565b5b827f7fffffffffffffffffffffffffffffffffffffffffffffffffffffffffffffff0582126000841260008412161615610acd57610acc610bc4565b5b828202905092915050565b6000610ae382610b6e565b9150610aee83610b6e565b9250817fffffffffffffffffffffffffffffffffffffffffffffffffffffffffffffffff0483118215151615610b2757610b26610bc4565b5b828202905092915050565b6000610b3d82610b4e565b9050919050565b6000819050919050565b600073ffffffffffffffffffffffffffffffffffffffff82169050919050565b6000819050919050565b600069ffffffffffffffffffff82169050919050565b6000610b9982610ba0565b9050919050565b6000610bab82610bb2565b9050919050565b6000610bbd82610b4e565b9050919050565b7f4e487b7100000000000000000000000000000000000000000000000000000000600052601160045260246000fd5b7f4e487b7100000000000000000000000000000000000000000000000000000000600052601260045260246000fd5b7f4e487b7100000000000000000000000000000000000000000000000000000000600052603260045260246000fd5b7f4e487b7100000000000000000000000000000000000000000000000000000000600052604160045260246000fd5b600080fd5b7f4469646e27742063616c6c207375636365737321000000000000000000000000600082015250565b50565b7f4469646e27742073656e6420656e6f7567682100000000000000000000000000600082015250565b610ce381610b44565b8114610cee57600080fd5b50565b610cfa81610b6e565b8114610d0557600080fd5b50565b610d1181610b78565b8114610d1c57600080fd5b5056fea26469706673582212208b428656c206f8f72fb40ca541146185953bb9103fea6e84a97507a6838ae2d364736f6c63430008070033",
  "devdoc": {
    "kind": "dev",
    "methods": {},
    "version": 1
  },
  "userdoc": {
    "kind": "user",
    "methods": {},
    "version": 1
  },
  "storageLayout": {
    "storage": [
      {
        "astId": 62,
        "contract": "contracts/FundMe.sol:FundMe",
        "label": "funders",
        "offset": 0,
        "slot": "0",
        "type": "t_array(t_address)dyn_storage"
      },
      {
        "astId": 66,
        "contract": "contracts/FundMe.sol:FundMe",
        "label": "addressToAmountFunded",
        "offset": 0,
        "slot": "1",
        "type": "t_mapping(t_address,t_uint256)"
      },
      {
        "astId": 71,
        "contract": "contracts/FundMe.sol:FundMe",
        "label": "priceFeed",
        "offset": 0,
        "slot": "2",
        "type": "t_contract(AggregatorV3Interface)45"
      }
    ],
    "types": {
      "t_address": {
        "encoding": "inplace",
        "label": "address",
        "numberOfBytes": "20"
      },
      "t_array(t_address)dyn_storage": {
        "base": "t_address",
        "encoding": "dynamic_array",
        "label": "address[]",
        "numberOfBytes": "32"
      },
      "t_contract(AggregatorV3Interface)45": {
        "encoding": "inplace",
        "label": "contract AggregatorV3Interface",
        "numberOfBytes": "20"
      },
      "t_mapping(t_address,t_uint256)": {
        "encoding": "mapping",
        "key": "t_address",
        "label": "mapping(address => uint256)",
        "numberOfBytes": "32",
        "value": "t_uint256"
      },
      "t_uint256": {
        "encoding": "inplace",
        "label": "uint256",
        "numberOfBytes": "32"
      }
    }
  }
}